:100000000C9446000C9465000C9465000C946500FB
:100010000C9465000C9465000C9465000C946500CC
:100020000C9465000C9465000C9465000C946500BC
:100030000C9465000C9465000C9465000C946500AC
:100040000C9465000C9465000C9465000C9465009C
:100050000C9465000C9465000C9465000C9465008C
:100060000C9465000C9465000C9465000C9465007C
:100070000C9465000C9465000C9465000C9465006C
:100080000C9465000C9465000C94650011241FBE4F
:10009000CFEFD0E4DEBFCDBF11E0A0E0B1E0EEE2F3
:1000A000F2E000E00BBF02C007900D92AE30B10746
:1000B000D9F711E0AEE0B1E001C01D92A031B10767
:1000C000E1F70E94F3000C9415010C940000CF930B
:1000D000DF9300D01F92CDB7DEB789837B836A831D
:1000E00089818A3031F48A819B81BC018DE00E9434
:1000F000670080EC90E0FC018081882F90E08072A6
:1001000099270097B1F386EC90E02981FC012083C8
:1001100080E090E00F900F900F90DF91CF910895C5
:10012000CF93DF93CDB7DEB780910E0190910F0191
:100130008130910571F08130910520F08230910578
:1001400001F137C081E090E090930F0180930E01A0
:1001500030C080E290E0FC018081882F90E08170C7
:100160009927009739F081E090E090930F018093F8
:100170000E011FC082E090E090930F0180930E016A
:1001800018C080E290E0FC018081882F90E08170AF
:100190009927009739F482E090E090930F018093C3
:1001A0000E0106C081E090E090930F0180930E0154
:1001B000000080910E0190910F018130910521F096
:1001C0008230910539F00CC085E290E021E0FC011D
:1001D000208306C085E290E022E0FC01208300003D
:1001E000DF91CF910895CF93DF93CDB7DEB784E24F
:1001F00090E02FEFFC01208385E290E0FC0110826B
:1002000081E290E0FC01108282E290E02FEFFC019D
:10021000208383E290E021E0FC01208310920F0113
:0E02200010920E010E949000FDCFF894FFCFC7
:0E022E00000000020000000067000000000059
:00000001FF
