:100000000C9446000C945D000C945D000C945D0013
:100010000C945D000C945D000C945D000C945D00EC
:100020000C945D000C945D000C945D000C945D00DC
:100030000C945D000C945D000C945D000C945D00CC
:100040000C945D000C945D000C945D000C945D00BC
:100050000C945D000C945D000C945D000C945D00AC
:100060000C945D000C945D000C945D000C945D009C
:100070000C945D000C945D000C945D000C945D008C
:100080000C945D000C945D000C945D0011241FBE67
:10009000CFEFD0E4DEBFCDBF11E0A0E0B1E0E4E6F9
:1000A000F2E000E00BBF02C007900D92AE30B10746
:1000B000D9F70E9488000C9430010C940000CF9373
:1000C000DF9300D01F92CDB7DEB789837B836A832D
:1000D00089818A3031F48A819B81BC018DE00E9444
:1000E0005F0080EC90E0FC018081882F90E08072BE
:1000F00099270097B1F386EC90E02981FC012083D9
:1001000080E090E00F900F900F90DF91CF910895D5
:10011000CF93DF93CDB7DEB72A970FB6F894DEBF43
:100120000FBECDBF81E290E0FC01108282E290E040
:100130002FEFFC01208384E290E0FC01108285E235
:1001400090E02FEFFC01208387E290E0FC01108219
:1001500088E290E02FEFFC0120838AE290E02FEF0D
:10016000FC0120838BE290E0FC0110821E821D8244
:1001700018861F821A8619861A8219821C821B828F
:1001800080E290E0FC018081882F90E099279E8397
:100190008D8383E290E0FC018081882F90E0992795
:1001A00098878F8386E290E0FC018081882F90E021
:1001B00099279A8789872D813E818F819885280F7D
:1001C000391F89859A85820F931F8D38910528F0F4
:1001D00089819A8101969A8389832D813E818985BF
:1001E0009A8582179307D8F52D813E8189859A8556
:1001F0008217930788F42D813E8189859A85A9010C
:10020000481B590BCA0181359105B0F089819A814B
:1002100002969A83898310C029853A858D819E81B3
:10022000F901E81BF90BCF018135910528F089818F
:100230009A8102969A8389838B819C818C7F9927EE
:100240009C838B8329813A818B819C81820F931FB0
:100250009A8389838BE290E02981FC01208390CFEF
:04026000F894FFCF40
:0E02640000000002000000005F00000000002B
:00000001FF
